{
  "contractName": "db",
  "abi": [
    {
      "inputs": [],
      "stateMutability": "nonpayable",
      "type": "constructor"
    },
    {
      "anonymous": false,
      "inputs": [
        {
          "indexed": true,
          "internalType": "address",
          "name": "_owner",
          "type": "address"
        },
        {
          "indexed": true,
          "internalType": "address",
          "name": "_approved",
          "type": "address"
        },
        {
          "indexed": true,
          "internalType": "uint256",
          "name": "_tokenId",
          "type": "uint256"
        }
      ],
      "name": "Approval",
      "type": "event"
    },
    {
      "anonymous": false,
      "inputs": [
        {
          "indexed": true,
          "internalType": "address",
          "name": "_owner",
          "type": "address"
        },
        {
          "indexed": true,
          "internalType": "address",
          "name": "_operator",
          "type": "address"
        },
        {
          "indexed": false,
          "internalType": "bool",
          "name": "_approved",
          "type": "bool"
        }
      ],
      "name": "ApprovalForAll",
      "type": "event"
    },
    {
      "anonymous": false,
      "inputs": [
        {
          "indexed": false,
          "internalType": "uint8",
          "name": "number",
          "type": "uint8"
        },
        {
          "indexed": false,
          "internalType": "string",
          "name": "general",
          "type": "string"
        },
        {
          "indexed": false,
          "internalType": "string",
          "name": "fields",
          "type": "string"
        },
        {
          "indexed": false,
          "internalType": "string",
          "name": "constraints",
          "type": "string"
        },
        {
          "indexed": false,
          "internalType": "uint8",
          "name": "id",
          "type": "uint8"
        }
      ],
      "name": "NewReq",
      "type": "event"
    },
    {
      "anonymous": false,
      "inputs": [
        {
          "indexed": true,
          "internalType": "address",
          "name": "_from",
          "type": "address"
        },
        {
          "indexed": true,
          "internalType": "address",
          "name": "_to",
          "type": "address"
        },
        {
          "indexed": true,
          "internalType": "uint256",
          "name": "_tokenId",
          "type": "uint256"
        }
      ],
      "name": "Transfer",
      "type": "event"
    },
    {
      "anonymous": false,
      "inputs": [
        {
          "indexed": false,
          "internalType": "uint8",
          "name": "number",
          "type": "uint8"
        },
        {
          "indexed": false,
          "internalType": "string",
          "name": "general",
          "type": "string"
        },
        {
          "indexed": false,
          "internalType": "string",
          "name": "fields",
          "type": "string"
        },
        {
          "indexed": false,
          "internalType": "string",
          "name": "constraints",
          "type": "string"
        },
        {
          "indexed": false,
          "internalType": "uint8",
          "name": "id",
          "type": "uint8"
        }
      ],
      "name": "completedReq",
      "type": "event"
    },
    {
      "inputs": [
        {
          "internalType": "uint8",
          "name": "",
          "type": "uint8"
        }
      ],
      "name": "idToOwner",
      "outputs": [
        {
          "internalType": "address",
          "name": "",
          "type": "address"
        }
      ],
      "stateMutability": "view",
      "type": "function",
      "constant": true
    },
    {
      "inputs": [],
      "name": "owner",
      "outputs": [
        {
          "internalType": "address",
          "name": "",
          "type": "address"
        }
      ],
      "stateMutability": "view",
      "type": "function",
      "constant": true
    },
    {
      "inputs": [
        {
          "internalType": "address",
          "name": "",
          "type": "address"
        }
      ],
      "name": "ownerContractCount",
      "outputs": [
        {
          "internalType": "uint256",
          "name": "",
          "type": "uint256"
        }
      ],
      "stateMutability": "view",
      "type": "function",
      "constant": true
    },
    {
      "inputs": [
        {
          "internalType": "uint256",
          "name": "",
          "type": "uint256"
        }
      ],
      "name": "reqList",
      "outputs": [
        {
          "internalType": "uint8",
          "name": "number",
          "type": "uint8"
        },
        {
          "internalType": "string",
          "name": "general",
          "type": "string"
        },
        {
          "internalType": "string",
          "name": "fields",
          "type": "string"
        },
        {
          "internalType": "string",
          "name": "constraints",
          "type": "string"
        },
        {
          "internalType": "uint8",
          "name": "payment",
          "type": "uint8"
        }
      ],
      "stateMutability": "view",
      "type": "function",
      "constant": true
    },
    {
      "inputs": [
        {
          "internalType": "address",
          "name": "_owner",
          "type": "address"
        }
      ],
      "name": "balanceOf",
      "outputs": [
        {
          "internalType": "uint256",
          "name": "",
          "type": "uint256"
        }
      ],
      "stateMutability": "view",
      "type": "function",
      "constant": true
    },
    {
      "inputs": [
        {
          "internalType": "uint256",
          "name": "_tokenId",
          "type": "uint256"
        }
      ],
      "name": "ownerOf",
      "outputs": [
        {
          "internalType": "address",
          "name": "",
          "type": "address"
        }
      ],
      "stateMutability": "view",
      "type": "function",
      "constant": true
    },
    {
      "inputs": [
        {
          "internalType": "address",
          "name": "_from",
          "type": "address"
        },
        {
          "internalType": "address",
          "name": "_to",
          "type": "address"
        },
        {
          "internalType": "uint256",
          "name": "_tokenId",
          "type": "uint256"
        }
      ],
      "name": "transferFrom",
      "outputs": [],
      "stateMutability": "payable",
      "type": "function",
      "payable": true
    },
    {
      "inputs": [
        {
          "internalType": "address",
          "name": "_from",
          "type": "address"
        },
        {
          "internalType": "address",
          "name": "_to",
          "type": "address"
        },
        {
          "internalType": "uint256",
          "name": "_tokenId",
          "type": "uint256"
        }
      ],
      "name": "safeTransferFrom",
      "outputs": [],
      "stateMutability": "payable",
      "type": "function",
      "payable": true
    },
    {
      "inputs": [
        {
          "internalType": "address",
          "name": "_approved",
          "type": "address"
        },
        {
          "internalType": "uint256",
          "name": "_tokenId",
          "type": "uint256"
        }
      ],
      "name": "approve",
      "outputs": [],
      "stateMutability": "payable",
      "type": "function",
      "payable": true
    },
    {
      "inputs": [
        {
          "internalType": "address",
          "name": "_operator",
          "type": "address"
        },
        {
          "internalType": "bool",
          "name": "_approved",
          "type": "bool"
        }
      ],
      "name": "setApprovalForAll",
      "outputs": [],
      "stateMutability": "nonpayable",
      "type": "function"
    },
    {
      "inputs": [
        {
          "internalType": "uint256",
          "name": "_tokenId",
          "type": "uint256"
        }
      ],
      "name": "getApproved",
      "outputs": [
        {
          "internalType": "address",
          "name": "",
          "type": "address"
        }
      ],
      "stateMutability": "view",
      "type": "function",
      "constant": true
    },
    {
      "inputs": [
        {
          "internalType": "address",
          "name": "_owner",
          "type": "address"
        },
        {
          "internalType": "address",
          "name": "_operator",
          "type": "address"
        }
      ],
      "name": "isApprovedForAll",
      "outputs": [
        {
          "internalType": "bool",
          "name": "",
          "type": "bool"
        }
      ],
      "stateMutability": "view",
      "type": "function",
      "constant": true
    },
    {
      "inputs": [
        {
          "internalType": "uint8",
          "name": "_number",
          "type": "uint8"
        },
        {
          "internalType": "string",
          "name": "_general",
          "type": "string"
        },
        {
          "internalType": "string",
          "name": "_fields",
          "type": "string"
        },
        {
          "internalType": "string",
          "name": "_constraints",
          "type": "string"
        },
        {
          "internalType": "uint8",
          "name": "_payment",
          "type": "uint8"
        }
      ],
      "name": "order",
      "outputs": [],
      "stateMutability": "nonpayable",
      "type": "function"
    },
    {
      "inputs": [
        {
          "internalType": "uint8",
          "name": "_id",
          "type": "uint8"
        }
      ],
      "name": "completeOrder",
      "outputs": [],
      "stateMutability": "nonpayable",
      "type": "function"
    },
    {
      "inputs": [],
      "name": "returnAllOrders",
      "outputs": [
        {
          "components": [
            {
              "internalType": "uint8",
              "name": "number",
              "type": "uint8"
            },
            {
              "internalType": "string",
              "name": "general",
              "type": "string"
            },
            {
              "internalType": "string",
              "name": "fields",
              "type": "string"
            },
            {
              "internalType": "string",
              "name": "constraints",
              "type": "string"
            },
            {
              "internalType": "uint8",
              "name": "payment",
              "type": "uint8"
            }
          ],
          "internalType": "struct db.Request[]",
          "name": "",
          "type": "tuple[]"
        }
      ],
      "stateMutability": "view",
      "type": "function",
      "constant": true
    },
    {
      "inputs": [],
      "name": "out",
      "outputs": [
        {
          "internalType": "string",
          "name": "",
          "type": "string"
        }
      ],
      "stateMutability": "pure",
      "type": "function",
      "constant": true
    },
    {
      "inputs": [
        {
          "internalType": "address payable",
          "name": "_to",
          "type": "address"
        }
      ],
      "name": "kill",
      "outputs": [],
      "stateMutability": "nonpayable",
      "type": "function"
    }
  ],
  "bytecode": "0x608060405234801561001057600080fd5b50336000806101000a81548173ffffffffffffffffffffffffffffffffffffffff021916908373ffffffffffffffffffffffffffffffffffffffff160217905550611c28806100606000396000f3fe6080604052600436106100fe5760003560e01c8063795ccba111610095578063a22cb46511610064578063a22cb46514610348578063b2a1449b14610371578063cbf0b0c01461039c578063e985e9c5146103c5578063fe96e72814610402576100fe565b8063795ccba1146102885780637f4117ef146102b15780638228bf05146102dc5780638da5cb5b1461031d576100fe565b806323b872dd116100d157806323b872dd146101d657806342842e0e146101f25780636352211e1461020e57806370a082311461024b576100fe565b8063039e792714610103578063081812fc14610140578063095ea7b31461017d5780630f063dab14610199575b600080fd5b34801561010f57600080fd5b5061012a60048036038101906101259190610ff4565b61042b565b6040516101379190611062565b60405180910390f35b34801561014c57600080fd5b50610167600480360381019061016291906110b3565b61045e565b6040516101749190611062565b60405180910390f35b6101976004803603810190610192919061110c565b610489565b005b3480156101a557600080fd5b506101c060048036038101906101bb919061114c565b61048d565b6040516101cd9190611188565b60405180910390f35b6101f060048036038101906101eb91906111a3565b6104a5565b005b61020c600480360381019061020791906111a3565b6104aa565b005b34801561021a57600080fd5b50610235600480360381019061023091906110b3565b6104af565b6040516102429190611062565b60405180910390f35b34801561025757600080fd5b50610272600480360381019061026d919061114c565b6104f2565b60405161027f9190611188565b60405180910390f35b34801561029457600080fd5b506102af60048036038101906102aa9190610ff4565b61053b565b005b3480156102bd57600080fd5b506102c6610890565b6040516102d391906113e4565b60405180910390f35b3480156102e857600080fd5b5061030360048036038101906102fe91906110b3565b610adf565b60405161031495949392919061145f565b60405180910390f35b34801561032957600080fd5b50610332610cd7565b60405161033f9190611062565b60405180910390f35b34801561035457600080fd5b5061036f600480360381019061036a91906114ff565b610cfb565b005b34801561037d57600080fd5b50610386610cff565b604051610393919061153f565b60405180910390f35b3480156103a857600080fd5b506103c360048036038101906103be919061159f565b610d42565b005b3480156103d157600080fd5b506103ec60048036038101906103e791906115cc565b610d5b565b6040516103f9919061161b565b60405180910390f35b34801561040e57600080fd5b506104296004803603810190610424919061176b565b610d63565b005b60026020528060005260406000206000915054906101000a900473ffffffffffffffffffffffffffffffffffffffff1681565b60008060009054906101000a900473ffffffffffffffffffffffffffffffffffffffff169050919050565b5050565b60036020528060005260406000206000915090505481565b505050565b505050565b6000600260008360ff1660ff16815260200190815260200160002060009054906101000a900473ffffffffffffffffffffffffffffffffffffffff169050919050565b6000600360008373ffffffffffffffffffffffffffffffffffffffff1673ffffffffffffffffffffffffffffffffffffffff168152602001908152602001600020549050919050565b600060018260ff16815481106105545761055361183a565b5b90600052602060002090600502016040518060a00160405290816000820160009054906101000a900460ff1660ff1660ff16815260200160018201805461059a90611898565b80601f01602080910402602001604051908101604052809291908181526020018280546105c690611898565b80156106135780601f106105e857610100808354040283529160200191610613565b820191906000526020600020905b8154815290600101906020018083116105f657829003601f168201915b5050505050815260200160028201805461062c90611898565b80601f016020809104026020016040519081016040528092919081815260200182805461065890611898565b80156106a55780601f1061067a576101008083540402835291602001916106a5565b820191906000526020600020905b81548152906001019060200180831161068857829003601f168201915b505050505081526020016003820180546106be90611898565b80601f01602080910402602001604051908101604052809291908181526020018280546106ea90611898565b80156107375780601f1061070c57610100808354040283529160200191610737565b820191906000526020600020905b81548152906001019060200180831161071a57829003601f168201915b505050505081526020016004820160009054906101000a900460ff1660ff1660ff16815250509050600081600001519050600082602001519050600083604001519050600084606001519050600085608001519050600260008860ff1660ff16815260200190815260200160002060006101000a81549073ffffffffffffffffffffffffffffffffffffffff021916905560018760ff16815481106107df576107de61183a565b5b9060005260206000209060050201600080820160006101000a81549060ff02191690556001820160006108129190610f4a565b6002820160006108229190610f4a565b6003820160006108329190610f4a565b6004820160006101000a81549060ff021916905550507fb4f380c7198a43b9c521ffded097b6520c9f636a9f8600c83e9267dca9202175858585858b60405161087f95949392919061145f565b60405180910390a150505050505050565b60606001805480602002602001604051908101604052809291908181526020016000905b82821015610ad657838290600052602060002090600502016040518060a00160405290816000820160009054906101000a900460ff1660ff1660ff16815260200160018201805461090490611898565b80601f016020809104026020016040519081016040528092919081815260200182805461093090611898565b801561097d5780601f106109525761010080835404028352916020019161097d565b820191906000526020600020905b81548152906001019060200180831161096057829003601f168201915b5050505050815260200160028201805461099690611898565b80601f01602080910402602001604051908101604052809291908181526020018280546109c290611898565b8015610a0f5780601f106109e457610100808354040283529160200191610a0f565b820191906000526020600020905b8154815290600101906020018083116109f257829003601f168201915b50505050508152602001600382018054610a2890611898565b80601f0160208091040260200160405190810160405280929190818152602001828054610a5490611898565b8015610aa15780601f10610a7657610100808354040283529160200191610aa1565b820191906000526020600020905b815481529060010190602001808311610a8457829003601f168201915b505050505081526020016004820160009054906101000a900460ff1660ff1660ff1681525050815260200190600101906108b4565b50505050905090565b60018181548110610aef57600080fd5b90600052602060002090600502016000915090508060000160009054906101000a900460ff1690806001018054610b2590611898565b80601f0160208091040260200160405190810160405280929190818152602001828054610b5190611898565b8015610b9e5780601f10610b7357610100808354040283529160200191610b9e565b820191906000526020600020905b815481529060010190602001808311610b8157829003601f168201915b505050505090806002018054610bb390611898565b80601f0160208091040260200160405190810160405280929190818152602001828054610bdf90611898565b8015610c2c5780601f10610c0157610100808354040283529160200191610c2c565b820191906000526020600020905b815481529060010190602001808311610c0f57829003601f168201915b505050505090806003018054610c4190611898565b80601f0160208091040260200160405190810160405280929190818152602001828054610c6d90611898565b8015610cba5780601f10610c8f57610100808354040283529160200191610cba565b820191906000526020600020905b815481529060010190602001808311610c9d57829003601f168201915b5050505050908060040160009054906101000a900460ff16905085565b60008054906101000a900473ffffffffffffffffffffffffffffffffffffffff1681565b5050565b606060006040518060400160405280600b81526020017f48656c6c6f20576f726c6400000000000000000000000000000000000000000081525090508091505090565b8073ffffffffffffffffffffffffffffffffffffffff16ff5b600092915050565b60016040518060a001604052808760ff1681526020018681526020018581526020018481526020018360ff16815250908060018154018082558091505060019003906000526020600020906005020160009091909190915060008201518160000160006101000a81548160ff021916908360ff1602179055506020820151816001019081610df19190611a75565b506040820151816002019081610e079190611a75565b506060820151816003019081610e1d9190611a75565b5060808201518160040160006101000a81548160ff021916908360ff1602179055505050600060018080549050610e549190611b76565b905033600260008360ff1660ff16815260200190815260200160002060006101000a81548173ffffffffffffffffffffffffffffffffffffffff021916908373ffffffffffffffffffffffffffffffffffffffff160217905550600360003373ffffffffffffffffffffffffffffffffffffffff1673ffffffffffffffffffffffffffffffffffffffff1681526020019081526020016000206000815480929190610efe90611baa565b91905055507fa2bf3762dc5b4ed2ab641b18aa113cf198da3a4129fa34befee6dd00c0cff2198686868685604051610f3a95949392919061145f565b60405180910390a1505050505050565b508054610f5690611898565b6000825580601f10610f685750610f87565b601f016020900490600052602060002090810190610f869190610f8a565b5b50565b5b80821115610fa3576000816000905550600101610f8b565b5090565b6000604051905090565b600080fd5b600080fd5b600060ff82169050919050565b610fd181610fbb565b8114610fdc57600080fd5b50565b600081359050610fee81610fc8565b92915050565b60006020828403121561100a57611009610fb1565b5b600061101884828501610fdf565b91505092915050565b600073ffffffffffffffffffffffffffffffffffffffff82169050919050565b600061104c82611021565b9050919050565b61105c81611041565b82525050565b60006020820190506110776000830184611053565b92915050565b6000819050919050565b6110908161107d565b811461109b57600080fd5b50565b6000813590506110ad81611087565b92915050565b6000602082840312156110c9576110c8610fb1565b5b60006110d78482850161109e565b91505092915050565b6110e981611041565b81146110f457600080fd5b50565b600081359050611106816110e0565b92915050565b6000806040838503121561112357611122610fb1565b5b6000611131858286016110f7565b92505060206111428582860161109e565b9150509250929050565b60006020828403121561116257611161610fb1565b5b6000611170848285016110f7565b91505092915050565b6111828161107d565b82525050565b600060208201905061119d6000830184611179565b92915050565b6000806000606084860312156111bc576111bb610fb1565b5b60006111ca868287016110f7565b93505060206111db868287016110f7565b92505060406111ec8682870161109e565b9150509250925092565b600081519050919050565b600082825260208201905092915050565b6000819050602082019050919050565b61122b81610fbb565b82525050565b600081519050919050565b600082825260208201905092915050565b60005b8381101561126b578082015181840152602081019050611250565b8381111561127a576000848401525b50505050565b6000601f19601f8301169050919050565b600061129c82611231565b6112a6818561123c565b93506112b681856020860161124d565b6112bf81611280565b840191505092915050565b600060a0830160008301516112e26000860182611222565b50602083015184820360208601526112fa8282611291565b915050604083015184820360408601526113148282611291565b9150506060830151848203606086015261132e8282611291565b91505060808301516113436080860182611222565b508091505092915050565b600061135a83836112ca565b905092915050565b6000602082019050919050565b600061137a826111f6565b6113848185611201565b93508360208202850161139685611212565b8060005b858110156113d257848403895281516113b3858261134e565b94506113be83611362565b925060208a0199505060018101905061139a565b50829750879550505050505092915050565b600060208201905081810360008301526113fe818461136f565b905092915050565b61140f81610fbb565b82525050565b600082825260208201905092915050565b600061143182611231565b61143b8185611415565b935061144b81856020860161124d565b61145481611280565b840191505092915050565b600060a0820190506114746000830188611406565b81810360208301526114868187611426565b9050818103604083015261149a8186611426565b905081810360608301526114ae8185611426565b90506114bd6080830184611406565b9695505050505050565b60008115159050919050565b6114dc816114c7565b81146114e757600080fd5b50565b6000813590506114f9816114d3565b92915050565b6000806040838503121561151657611515610fb1565b5b6000611524858286016110f7565b9250506020611535858286016114ea565b9150509250929050565b600060208201905081810360008301526115598184611426565b905092915050565b600061156c82611021565b9050919050565b61157c81611561565b811461158757600080fd5b50565b60008135905061159981611573565b92915050565b6000602082840312156115b5576115b4610fb1565b5b60006115c38482850161158a565b91505092915050565b600080604083850312156115e3576115e2610fb1565b5b60006115f1858286016110f7565b9250506020611602858286016110f7565b9150509250929050565b611615816114c7565b82525050565b6000602082019050611630600083018461160c565b92915050565b600080fd5b600080fd5b7f4e487b7100000000000000000000000000000000000000000000000000000000600052604160045260246000fd5b61167882611280565b810181811067ffffffffffffffff8211171561169757611696611640565b5b80604052505050565b60006116aa610fa7565b90506116b6828261166f565b919050565b600067ffffffffffffffff8211156116d6576116d5611640565b5b6116df82611280565b9050602081019050919050565b82818337600083830152505050565b600061170e611709846116bb565b6116a0565b90508281526020810184848401111561172a5761172961163b565b5b6117358482856116ec565b509392505050565b600082601f83011261175257611751611636565b5b81356117628482602086016116fb565b91505092915050565b600080600080600060a0868803121561178757611786610fb1565b5b600061179588828901610fdf565b955050602086013567ffffffffffffffff8111156117b6576117b5610fb6565b5b6117c28882890161173d565b945050604086013567ffffffffffffffff8111156117e3576117e2610fb6565b5b6117ef8882890161173d565b935050606086013567ffffffffffffffff8111156118105761180f610fb6565b5b61181c8882890161173d565b925050608061182d88828901610fdf565b9150509295509295909350565b7f4e487b7100000000000000000000000000000000000000000000000000000000600052603260045260246000fd5b7f4e487b7100000000000000000000000000000000000000000000000000000000600052602260045260246000fd5b600060028204905060018216806118b057607f821691505b6020821081036118c3576118c2611869565b5b50919050565b60008190508160005260206000209050919050565b60006020601f8301049050919050565b600082821b905092915050565b60006008830261192b7fffffffffffffffffffffffffffffffffffffffffffffffffffffffffffffffff826118ee565b61193586836118ee565b95508019841693508086168417925050509392505050565b6000819050919050565b600061197261196d6119688461107d565b61194d565b61107d565b9050919050565b6000819050919050565b61198c83611957565b6119a061199882611979565b8484546118fb565b825550505050565b600090565b6119b56119a8565b6119c0818484611983565b505050565b5b818110156119e4576119d96000826119ad565b6001810190506119c6565b5050565b601f821115611a29576119fa816118c9565b611a03846118de565b81016020851015611a12578190505b611a26611a1e856118de565b8301826119c5565b50505b505050565b600082821c905092915050565b6000611a4c60001984600802611a2e565b1980831691505092915050565b6000611a658383611a3b565b9150826002028217905092915050565b611a7e82611231565b67ffffffffffffffff811115611a9757611a96611640565b5b611aa18254611898565b611aac8282856119e8565b600060209050601f831160018114611adf5760008415611acd578287015190505b611ad78582611a59565b865550611b3f565b601f198416611aed866118c9565b60005b82811015611b1557848901518255600182019150602085019450602081019050611af0565b86831015611b325784890151611b2e601f891682611a3b565b8355505b6001600288020188555050505b505050505050565b7f4e487b7100000000000000000000000000000000000000000000000000000000600052601160045260246000fd5b6000611b818261107d565b9150611b8c8361107d565b925082821015611b9f57611b9e611b47565b5b828203905092915050565b6000611bb58261107d565b91507fffffffffffffffffffffffffffffffffffffffffffffffffffffffffffffffff8203611be757611be6611b47565b5b60018201905091905056fea2646970667358221220fd37e5d9246c916615764624271c59dcee5d9f484366b8c136ef292ec8b45c0964736f6c634300080f0033",
  "immutableReferences": {},
  "source": "pragma solidity ^0.8.15;\n// SPDX-License-Identifier: MIT\n\nimport \"./erc721.sol\";\n\ncontract db is ERC721 {\n\n    address public owner;\n\n    struct Request{\n        uint8 number; //number of people needed to be included\n        string general; //general health type data: \"general\", \"optometrist\", \"gut health\", etc.\n        string fields; //comma delineated string of fields needed from general type of health data: \"age, weight, ethnicity\", etc.\n        string constraints; //in order of fields, will contain the values they must be to be included in the request\n        uint8 payment; // amount that request sender will pay to those who provide data (will be uniformly split)\n    }\n\n    Request[] public reqList;\n    mapping (uint8 => address) public idToOwner;\n    mapping (address => uint) public ownerContractCount;\n\n\n    event NewReq(uint8 number, string general, string fields, string constraints, uint8 id);\n    event completedReq(uint8 number, string general, string fields, string constraints, uint8 id);\n\n    constructor() {\n        owner = msg.sender;\n    }\n\n    function balanceOf(address _owner) external view returns (uint256) {\n        return ownerContractCount[_owner];\n    }\n\n    function ownerOf(uint256 _tokenId) external view returns (address) {\n        return idToOwner[uint8(_tokenId)];\n    }\n\n    function transferFrom(address _from, address _to, uint256 _tokenId) external payable {\n        uint test;\n    }\n\n    function safeTransferFrom(address _from, address _to, uint256 _tokenId) external payable {}\n\n    function approve(address _approved, uint256 _tokenId) external payable {\n        uint test;\n    }\n\n    function setApprovalForAll(address _operator, bool _approved) external {\n        uint test;\n    }\n\n    function getApproved(uint256 _tokenId) external view returns (address) {\n        return owner;\n    }\n\n    function isApprovedForAll(address _owner, address _operator) external view returns (bool) {\n        return false;\n    }\n\n    function order(uint8 _number, string memory _general, string memory _fields, string memory _constraints, uint8 _payment) public {\n        //handles creating a new request, adding to reqlist and gives it an id for mapping\n        reqList.push(Request(_number, _general, _fields, _constraints, _payment));\n        uint8 id = uint8(reqList.length - 1);\n        idToOwner[id] = msg.sender;\n        ownerContractCount[msg.sender]++;\n\n        emit NewReq(_number, _general, _fields, _constraints, id);\n\n    }\n\n    function completeOrder(uint8 _id) public {\n        //make this only owner eventually\n        //require(msg.sender == idToOwner[id], \"Sorry, not owner of request\");\n        Request memory curr = reqList[_id];\n        uint8 number = curr.number;\n        string memory general = curr.general;\n        string memory fields = curr.fields;\n        string memory constraints = curr.constraints;\n        uint8 payment = curr.payment;\n\n        delete idToOwner[_id]; // delete just switches that id to \"0\", so id's of other requests should still be the same\n        delete reqList[_id]; \n        emit completedReq(number, general, fields, constraints, _id);\n    }\n\n    function returnAllOrders() public view returns (Request[] memory) {\n        return reqList;\n    }\n\n    function out() pure public returns (string memory) {\n        string memory message = \"Hello World\";\n        return message;\n    }\n\n    function kill(address payable _to) public {\n        selfdestruct(_to);\n     }     \n}",
  "sourcePath": "/Users/kennethli/github/testMarketContracts/contracts/db.sol",
  "compiler": {
    "name": "solc",
    "version": "0.8.15+commit.e14f2714.Emscripten.clang"
  },
  "schemaVersion": "3.4.8",
  "updatedAt": "2022-07-27T21:21:36.479Z",
  "networkType": "ethereum",
  "devdoc": {
    "kind": "dev",
    "methods": {
      "approve(address,uint256)": {
        "details": "The zero address indicates there is no approved address.Throws unless `msg.sender` is the current NFT owner, or an authorized  operator of the current owner.",
        "params": {
          "_approved": "The new approved NFT controller",
          "_tokenId": "The NFT to approve"
        }
      },
      "balanceOf(address)": {
        "details": "NFTs assigned to the zero address are considered invalid, and this  function throws for queries about the zero address.",
        "params": {
          "_owner": "An address for whom to query the balance"
        },
        "returns": {
          "_0": "The number of NFTs owned by `_owner`, possibly zero"
        }
      },
      "getApproved(uint256)": {
        "details": "Throws if `_tokenId` is not a valid NFT",
        "params": {
          "_tokenId": "The NFT to find the approved address for"
        },
        "returns": {
          "_0": "The approved address for this NFT, or the zero address if there is none"
        }
      },
      "isApprovedForAll(address,address)": {
        "params": {
          "_operator": "The address that acts on behalf of the owner",
          "_owner": "The address that owns the NFTs"
        },
        "returns": {
          "_0": "True if `_operator` is an approved operator for `_owner`, false otherwise"
        }
      },
      "ownerOf(uint256)": {
        "details": "NFTs assigned to zero address are considered invalid, and queries  about them do throw.",
        "params": {
          "_tokenId": "The identifier for an NFT"
        },
        "returns": {
          "_0": "The address of the owner of the NFT"
        }
      },
      "safeTransferFrom(address,address,uint256)": {
        "details": "This works identically to the other function with an extra data parameter,  except this function just sets data to \"\"",
        "params": {
          "_from": "The current owner of the NFT",
          "_to": "The new owner",
          "_tokenId": "The NFT to transfer"
        }
      },
      "setApprovalForAll(address,bool)": {
        "details": "Emits the ApprovalForAll event. The contract MUST allow  multiple operators per owner.",
        "params": {
          "_approved": "True if the operator is approved, false to revoke approval",
          "_operator": "Address to add to the set of authorized operators."
        }
      },
      "transferFrom(address,address,uint256)": {
        "details": "Throws unless `msg.sender` is the current owner, an authorized  operator, or the approved address for this NFT. Throws if `_from` is  not the current owner. Throws if `_to` is the zero address. Throws if  `_tokenId` is not a valid NFT.",
        "params": {
          "_from": "The current owner of the NFT",
          "_to": "The new owner",
          "_tokenId": "The NFT to transfer"
        }
      }
    },
    "version": 1
  },
  "userdoc": {
    "kind": "user",
    "methods": {
      "approve(address,uint256)": {
        "notice": "Set or reaffirm the approved address for an NFT"
      },
      "balanceOf(address)": {
        "notice": "Count all NFTs assigned to an owner"
      },
      "getApproved(uint256)": {
        "notice": "Get the approved address for a single NFT"
      },
      "isApprovedForAll(address,address)": {
        "notice": "Query if an address is an authorized operator for another address"
      },
      "ownerOf(uint256)": {
        "notice": "Find the owner of an NFT"
      },
      "safeTransferFrom(address,address,uint256)": {
        "notice": "Transfers the ownership of an NFT from one address to another address"
      },
      "setApprovalForAll(address,bool)": {
        "notice": "Enable or disable approval for a third party (\"operator\") to manage  all of `msg.sender`'s assets."
      },
      "transferFrom(address,address,uint256)": {
        "notice": "Transfer ownership of an NFT -- THE CALLER IS RESPONSIBLE  TO CONFIRM THAT `_to` IS CAPABLE OF RECEIVING NFTS OR ELSE  THEY MAY BE PERMANENTLY LOST"
      }
    },
    "version": 1
  }
}